{
  "_format": "hh-sol-artifact-1",
  "contractName": "StoreInt",
  "sourceName": "contracts/StoreInt.sol",
  "abi": [
    {
      "anonymous": false,
      "inputs": [
        {
          "indexed": false,
          "internalType": "int256",
          "name": "newSignedValue",
          "type": "int256"
        }
      ],
      "name": "SignedValueUpdated",
      "type": "event"
    },
    {
      "anonymous": false,
      "inputs": [
        {
          "indexed": false,
          "internalType": "uint256",
          "name": "newUnsignedValue",
          "type": "uint256"
        }
      ],
      "name": "UnsignedValueUpdated",
      "type": "event"
    },
    {
      "inputs": [
        {
          "internalType": "int256",
          "name": "_signedDecrement",
          "type": "int256"
        }
      ],
      "name": "decrementInt",
      "outputs": [],
      "stateMutability": "nonpayable",
      "type": "function"
    },
    {
      "inputs": [
        {
          "internalType": "uint256",
          "name": "_unsignedDecrement",
          "type": "uint256"
        }
      ],
      "name": "decrementUint",
      "outputs": [],
      "stateMutability": "nonpayable",
      "type": "function"
    },
    {
      "inputs": [
        {
          "internalType": "int256",
          "name": "_signedIncrement",
          "type": "int256"
        }
      ],
      "name": "incrementInt",
      "outputs": [],
      "stateMutability": "nonpayable",
      "type": "function"
    },
    {
      "inputs": [
        {
          "internalType": "uint256",
          "name": "_unsignedIncrement",
          "type": "uint256"
        }
      ],
      "name": "incrementUint",
      "outputs": [],
      "stateMutability": "nonpayable",
      "type": "function"
    },
    {
      "inputs": [],
      "name": "retrieveInt",
      "outputs": [
        {
          "internalType": "int256",
          "name": "",
          "type": "int256"
        }
      ],
      "stateMutability": "view",
      "type": "function"
    },
    {
      "inputs": [],
      "name": "retrieveUint",
      "outputs": [
        {
          "internalType": "uint256",
          "name": "",
          "type": "uint256"
        }
      ],
      "stateMutability": "view",
      "type": "function"
    },
    {
      "inputs": [
        {
          "internalType": "int256",
          "name": "_signedValue",
          "type": "int256"
        }
      ],
      "name": "storeInt",
      "outputs": [],
      "stateMutability": "nonpayable",
      "type": "function"
    },
    {
      "inputs": [
        {
          "internalType": "uint256",
          "name": "_unsignedValue",
          "type": "uint256"
        }
      ],
      "name": "storeUint",
      "outputs": [],
      "stateMutability": "nonpayable",
      "type": "function"
    }
  ],
  "bytecode": "0x6080604052348015600f57600080fd5b506107748061001f6000396000f3fe608060405234801561001057600080fd5b50600436106100885760003560e01c806358b48f881161005b57806358b48f88146100ff5780635e61d5341461011b578063d02daac114610139578063eef4c90f1461015557610088565b80630263deb61461008d57806335ed8e2d146100a95780634122b93f146100c7578063492440bf146100e3575b600080fd5b6100a760048036038101906100a2919061042d565b610171565b005b6100b1610217565b6040516100be9190610473565b60405180910390f35b6100e160048036038101906100dc919061042d565b610220565b005b6100fd60048036038101906100f891906104ba565b610263565b005b6101196004803603810190610114919061042d565b6102fc565b005b610123610351565b60405161013091906104f6565b60405180910390f35b610153600480360381019061014e91906104ba565b61035b565b005b61016f600480360381019061016a91906104ba565b6103af565b005b6000816001546101819190610540565b12156101c2576040517f08c379a00000000000000000000000000000000000000000000000000000000081526004016101b990610606565b60405180910390fd5b80600160008282546101d49190610540565b925050819055507f47617180d258005719f4dbdceef094c0274ec0dba32262254a74fac31858130e60015460405161020c91906104f6565b60405180910390a150565b60008054905090565b806001819055507f47617180d258005719f4dbdceef094c0274ec0dba32262254a74fac31858130e60015460405161025891906104f6565b60405180910390a150565b8060005410156102a8576040517f08c379a000000000000000000000000000000000000000000000000000000000815260040161029f90610672565b60405180910390fd5b806000808282546102b99190610692565b925050819055507f1db26630220ac51e315d6e6b1165bc22f1c943d4d83fd626abbbca412daf9c746000546040516102f19190610473565b60405180910390a150565b806001600082825461030e91906106c6565b925050819055507f47617180d258005719f4dbdceef094c0274ec0dba32262254a74fac31858130e60015460405161034691906104f6565b60405180910390a150565b6000600154905090565b8060008082825461036c919061070a565b925050819055507f1db26630220ac51e315d6e6b1165bc22f1c943d4d83fd626abbbca412daf9c746000546040516103a49190610473565b60405180910390a150565b806000819055507f1db26630220ac51e315d6e6b1165bc22f1c943d4d83fd626abbbca412daf9c746000546040516103e79190610473565b60405180910390a150565b600080fd5b6000819050919050565b61040a816103f7565b811461041557600080fd5b50565b60008135905061042781610401565b92915050565b600060208284031215610443576104426103f2565b5b600061045184828501610418565b91505092915050565b6000819050919050565b61046d8161045a565b82525050565b60006020820190506104886000830184610464565b92915050565b6104978161045a565b81146104a257600080fd5b50565b6000813590506104b48161048e565b92915050565b6000602082840312156104d0576104cf6103f2565b5b60006104de848285016104a5565b91505092915050565b6104f0816103f7565b82525050565b600060208201905061050b60008301846104e7565b92915050565b7f4e487b7100000000000000000000000000000000000000000000000000000000600052601160045260246000fd5b600061054b826103f7565b9150610556836103f7565b925082820390508181126000841216828213600085121516171561057d5761057c610511565b5b92915050565b600082825260208201905092915050565b7f5369676e65642076616c75652063616e6e6f7420676f2062656c6f77207a657260008201527f6f00000000000000000000000000000000000000000000000000000000000000602082015250565b60006105f0602183610583565b91506105fb82610594565b604082019050919050565b6000602082019050818103600083015261061f816105e3565b9050919050565b7f556e7369676e65642076616c756520756e646572666c6f770000000000000000600082015250565b600061065c601883610583565b915061066782610626565b602082019050919050565b6000602082019050818103600083015261068b8161064f565b9050919050565b600061069d8261045a565b91506106a88361045a565b92508282039050818111156106c0576106bf610511565b5b92915050565b60006106d1826103f7565b91506106dc836103f7565b92508282019050828112156000831216838212600084121516171561070457610703610511565b5b92915050565b60006107158261045a565b91506107208361045a565b925082820190508082111561073857610737610511565b5b9291505056fea2646970667358221220786c42349fc22ddf817106d9370c6144cc78241a6c3bd085f5da442256c74a9a64736f6c634300081c0033",
  "linkReferences": {},
  "deployedLinkReferences": {}
}